{
  "_format": "hh-sol-artifact-1",
  "contractName": "Lock",
  "sourceName": "contracts/Lock.sol",
  "abi": [
    {
      "inputs": [
        {
          "internalType": "uint256",
          "name": "_unlockTime",
          "type": "uint256"
        }
      ],
      "stateMutability": "payable",
      "type": "constructor"
    },
    {
      "anonymous": false,
      "inputs": [
        {
          "indexed": false,
          "internalType": "string",
          "name": "newMessage",
          "type": "string"
        }
      ],
      "name": "SetMessage",
      "type": "event"
    },
    {
      "anonymous": false,
      "inputs": [
        {
          "indexed": false,
          "internalType": "uint256",
          "name": "amount",
          "type": "uint256"
        },
        {
          "indexed": false,
          "internalType": "uint256",
          "name": "when",
          "type": "uint256"
        }
      ],
      "name": "Withdrawal",
      "type": "event"
    },
    {
      "inputs": [],
      "name": "message",
      "outputs": [
        {
          "internalType": "string",
          "name": "",
          "type": "string"
        }
      ],
      "stateMutability": "view",
      "type": "function"
    },
    {
      "inputs": [],
      "name": "owner",
      "outputs": [
        {
          "internalType": "address payable",
          "name": "",
          "type": "address"
        }
      ],
      "stateMutability": "view",
      "type": "function"
    },
    {
      "inputs": [
        {
          "internalType": "string",
          "name": "_msg",
          "type": "string"
        }
      ],
      "name": "setMessage",
      "outputs": [],
      "stateMutability": "nonpayable",
      "type": "function"
    },
    {
      "inputs": [],
      "name": "unlockTime",
      "outputs": [
        {
          "internalType": "uint256",
          "name": "",
          "type": "uint256"
        }
      ],
      "stateMutability": "view",
      "type": "function"
    },
    {
      "inputs": [],
      "name": "withdraw",
      "outputs": [],
      "stateMutability": "nonpayable",
      "type": "function"
    }
  ],
  "bytecode": "0x60806040526040518060400160405280600b81526020017f68656c6c6f20776f726c64000000000000000000000000000000000000000000815250600290816200004a91906200037e565b5060405162000fc838038062000fc883398181016040528101906200007091906200049b565b804210620000b5576040517f08c379a0000000000000000000000000000000000000000000000000000000008152600401620000ac9062000554565b60405180910390fd5b8060008190555033600160006101000a81548173ffffffffffffffffffffffffffffffffffffffff021916908373ffffffffffffffffffffffffffffffffffffffff1602179055505062000576565b600081519050919050565b7f4e487b7100000000000000000000000000000000000000000000000000000000600052604160045260246000fd5b7f4e487b7100000000000000000000000000000000000000000000000000000000600052602260045260246000fd5b600060028204905060018216806200018657607f821691505b6020821081036200019c576200019b6200013e565b5b50919050565b60008190508160005260206000209050919050565b60006020601f8301049050919050565b600082821b905092915050565b600060088302620002067fffffffffffffffffffffffffffffffffffffffffffffffffffffffffffffffff82620001c7565b620002128683620001c7565b95508019841693508086168417925050509392505050565b6000819050919050565b6000819050919050565b60006200025f6200025962000253846200022a565b62000234565b6200022a565b9050919050565b6000819050919050565b6200027b836200023e565b620002936200028a8262000266565b848454620001d4565b825550505050565b600090565b620002aa6200029b565b620002b781848462000270565b505050565b5b81811015620002df57620002d3600082620002a0565b600181019050620002bd565b5050565b601f8211156200032e57620002f881620001a2565b6200030384620001b7565b8101602085101562000313578190505b6200032b6200032285620001b7565b830182620002bc565b50505b505050565b600082821c905092915050565b6000620003536000198460080262000333565b1980831691505092915050565b60006200036e838362000340565b9150826002028217905092915050565b620003898262000104565b67ffffffffffffffff811115620003a557620003a46200010f565b5b620003b182546200016d565b620003be828285620002e3565b600060209050601f831160018114620003f65760008415620003e1578287015190505b620003ed858262000360565b8655506200045d565b601f1984166200040686620001a2565b60005b82811015620004305784890151825560018201915060208501945060208101905062000409565b868310156200045057848901516200044c601f89168262000340565b8355505b6001600288020188555050505b505050505050565b600080fd5b62000475816200022a565b81146200048157600080fd5b50565b60008151905062000495816200046a565b92915050565b600060208284031215620004b457620004b362000465565b5b6000620004c48482850162000484565b91505092915050565b600082825260208201905092915050565b7f556e6c6f636b2074696d652073686f756c6420626520696e207468652066757460008201527f7572650000000000000000000000000000000000000000000000000000000000602082015250565b60006200053c602383620004cd565b91506200054982620004de565b604082019050919050565b600060208201905081810360008301526200056f816200052d565b9050919050565b610a4280620005866000396000f3fe608060405234801561001057600080fd5b50600436106100575760003560e01c8063251c1aa31461005c578063368b87721461007a5780633ccfd60b146100965780638da5cb5b146100a0578063e21f37ce146100be575b600080fd5b6100646100dc565b6040516100719190610372565b60405180910390f35b610094600480360381019061008f91906104e7565b6100e2565b005b61009e61012c565b005b6100a86102a5565b6040516100b59190610571565b60405180910390f35b6100c66102cb565b6040516100d3919061060b565b60405180910390f35b60005481565b80600290816100f19190610839565b507f88fabb3a5fb12238a642b855bc1b1693ac0d6443ad7fc7c035e322c5b6cb587f81604051610121919061060b565b60405180910390a150565b600054421015610171576040517f08c379a000000000000000000000000000000000000000000000000000000000815260040161016890610957565b60405180910390fd5b600160009054906101000a900473ffffffffffffffffffffffffffffffffffffffff1673ffffffffffffffffffffffffffffffffffffffff163373ffffffffffffffffffffffffffffffffffffffff1614610201576040517f08c379a00000000000000000000000000000000000000000000000000000000081526004016101f8906109c3565b60405180910390fd5b7fbf2ed60bd5b5965d685680c01195c9514e4382e28e3a5a2d2d5244bf59411b9347426040516102329291906109e3565b60405180910390a1600160009054906101000a900473ffffffffffffffffffffffffffffffffffffffff1673ffffffffffffffffffffffffffffffffffffffff166108fc479081150290604051600060405180830381858888f193505050501580156102a2573d6000803e3d6000fd5b50565b600160009054906101000a900473ffffffffffffffffffffffffffffffffffffffff1681565b600280546102d89061065c565b80601f01602080910402602001604051908101604052809291908181526020018280546103049061065c565b80156103515780601f1061032657610100808354040283529160200191610351565b820191906000526020600020905b81548152906001019060200180831161033457829003601f168201915b505050505081565b6000819050919050565b61036c81610359565b82525050565b60006020820190506103876000830184610363565b92915050565b6000604051905090565b600080fd5b600080fd5b600080fd5b600080fd5b6000601f19601f8301169050919050565b7f4e487b7100000000000000000000000000000000000000000000000000000000600052604160045260246000fd5b6103f4826103ab565b810181811067ffffffffffffffff82111715610413576104126103bc565b5b80604052505050565b600061042661038d565b905061043282826103eb565b919050565b600067ffffffffffffffff821115610452576104516103bc565b5b61045b826103ab565b9050602081019050919050565b82818337600083830152505050565b600061048a61048584610437565b61041c565b9050828152602081018484840111156104a6576104a56103a6565b5b6104b1848285610468565b509392505050565b600082601f8301126104ce576104cd6103a1565b5b81356104de848260208601610477565b91505092915050565b6000602082840312156104fd576104fc610397565b5b600082013567ffffffffffffffff81111561051b5761051a61039c565b5b610527848285016104b9565b91505092915050565b600073ffffffffffffffffffffffffffffffffffffffff82169050919050565b600061055b82610530565b9050919050565b61056b81610550565b82525050565b60006020820190506105866000830184610562565b92915050565b600081519050919050565b600082825260208201905092915050565b60005b838110156105c65780820151818401526020810190506105ab565b60008484015250505050565b60006105dd8261058c565b6105e78185610597565b93506105f78185602086016105a8565b610600816103ab565b840191505092915050565b6000602082019050818103600083015261062581846105d2565b905092915050565b7f4e487b7100000000000000000000000000000000000000000000000000000000600052602260045260246000fd5b6000600282049050600182168061067457607f821691505b6020821081036106875761068661062d565b5b50919050565b60008190508160005260206000209050919050565b60006020601f8301049050919050565b600082821b905092915050565b6000600883026106ef7fffffffffffffffffffffffffffffffffffffffffffffffffffffffffffffffff826106b2565b6106f986836106b2565b95508019841693508086168417925050509392505050565b6000819050919050565b600061073661073161072c84610359565b610711565b610359565b9050919050565b6000819050919050565b6107508361071b565b61076461075c8261073d565b8484546106bf565b825550505050565b600090565b61077961076c565b610784818484610747565b505050565b5b818110156107a85761079d600082610771565b60018101905061078a565b5050565b601f8211156107ed576107be8161068d565b6107c7846106a2565b810160208510156107d6578190505b6107ea6107e2856106a2565b830182610789565b50505b505050565b600082821c905092915050565b6000610810600019846008026107f2565b1980831691505092915050565b600061082983836107ff565b9150826002028217905092915050565b6108428261058c565b67ffffffffffffffff81111561085b5761085a6103bc565b5b610865825461065c565b6108708282856107ac565b600060209050601f8311600181146108a35760008415610891578287015190505b61089b858261081d565b865550610903565b601f1984166108b18661068d565b60005b828110156108d9578489015182556001820191506020850194506020810190506108b4565b868310156108f657848901516108f2601f8916826107ff565b8355505b6001600288020188555050505b505050505050565b7f596f752063616e27742077697468647261772079657400000000000000000000600082015250565b6000610941601683610597565b915061094c8261090b565b602082019050919050565b6000602082019050818103600083015261097081610934565b9050919050565b7f596f75206172656e277420746865206f776e6572000000000000000000000000600082015250565b60006109ad601483610597565b91506109b882610977565b602082019050919050565b600060208201905081810360008301526109dc816109a0565b9050919050565b60006040820190506109f86000830185610363565b610a056020830184610363565b939250505056fea2646970667358221220642905a3b896c307b300de323bad6d2847b0fa020bda6490f9ee45b6718333ac64736f6c63430008180033",
  "linkReferences": {},
  "deployedLinkReferences": {}
}